:020000002329B2
:10000800FF00030E8301B4000A08B5008A017008D6
:10001800A1007108A0008B1C49282F08003A031D75
:100028001F2806308100A901AA01BF308316810567
:100038008312AF0A47282908F0002A08F100FA308D
:10004800F400F501F82006300102F200F301031C68
:10005800F3037208F00773080318013EF1077008EC
:10006800AB007108AC001130F4000030F500F82046
:10007800E830F4000330F500DB207008A500831693
:1000880001178312AF01FD308B050B1D6428063064
:1000980081002308273A031D532810302206031D28
:1000A80059280130A800A201A301A90A0319AA0A24
:1000B800AD0A0319AE0AFB308B05A20A0319A30A7D
:1000C8000C1D8D282408031976283308F000F10147
:1000D8007008960032089500A401093097008F0136
:1000E8008E018B283208403CF3003308031C013E84
:1000F8009C3CF4007408F000F10170089600730845
:100108009500083097000130A4008F018E01FB3064
:100118008C052108F0002008F10035088A00340E0B
:080128008300FF0E7F0E0900A9
:0E0130008312031331088A0030088200080091
:10013E0098208A110A128000840AB00A0319B10AA3
:08014E00F003031D9F280800C7
:100156000630831203138100AD01AE01B60DB70D53
:100166003610B60DB70D361037082E02031DBD2802
:0C01760036082D020318C028B728080026
:1001820027308312031392000C309D00FA3083163D
:0A0192009200963083129B000800D3
:10019C00831203130714F101163071020318D828C7
:0A01AC00F10AD228FE308705080092
:1001B60083120313F801F9011030FC00710DF80DDC
:1001C600F90D7408F8027508031C750FF902031877
:1001D600F3287408F80775080318750FF907031054
:0A01E600F00DF10DFC0BE1280800FC
:1001F00083120313FB01FA01F9018030F800F10CBE
:10020000F00C031C0C297408F90775080318750F06
:10021000FA070318FB0A0310F01F14297408FA07E1
:1002200075080318750FFB07FB0CFA0CF90CF80C9A
:10023000031CFF287B08F3007A08F2007908F1001C
:060240007808F000080040
:1002460083120313A201A301A4016430A500A60131
:10025600A701A801A901AA01AB01AC01AD01AE013C
:10026600AF01FF308316860087018312870183164C
:1002760088018312880101309000F0308B004030F5
:10028600831681000C1583128F018E0107309600AC
:10029600D03095004C30B2000430B300C120CE20DF
:1002A600B030B2000430B3000A30250203187129B9
:1002B60088019B01F430B6000130B700AB20503006
:1002C60088000130B6000030B700AB2096309B00A6
:1002D600E830B6000330B700AB20B02930308800D4
:1002E6000130B6000030B700AB203830880001304E
:1002F600B6000030B700AB2028080319AC29A601C8
:10030600A70103302702031D8A29E83026020318B5
:10031600AB29CE200A3025020318992950308800CF
:10032600E830B6000330B700AB20A729B830880004
:100336000130B6000030B700AB20B0308800013085
:10034600B6000030B700AB20A60A0319A70A842915
:0E035600A801AC30B2000D30B3005229B1291D
:02400E004A2F37
:00000001FF
